:100000000C9434000C943E000C943E000C943E0082
:100010000C943E000C943E000C943E000C943E0068
:100020000C943E000C943E000C943E000C948E0008
:100030000C943E000C943E000C943E000C943E0048
:100040000C943E000C943E000C943E000C943E0038
:100050000C943E000C943E000C943E000C943E0028
:100060000C943E000C943E0011241FBECFEFD8E04C
:10007000DEBFCDBF0E9440000C949A000C9400009B
:10008000CFEFD8E0DEBFCDBF0E945B00189903C060
:10009000199909C0FBCF28B52F3FC1F3239528BD7F
:1000A0000E947200F3CF28B5203081F32A9528BD35
:1000B0000E947200EBCF11241FBE80E88093610084
:1000C00010926100559A5D9A23EA24BD29E025BD6E
:1000D0002FEF27BD2AE028BD08958BB190E889272E
:1000E0008BB9089501E01DEC28EC2A95F1F71A95DB
:1000F000D9F70A95C1F70895009181000A6000932D
:1001000081000AEF0093880000E0009389000091CD
:100110006F00026000936F00789408950F930F9220
:100120000FB60F9201E0009300010F900FBE0F90E9
:080130000F911895F894FFCF20
:020138000000C5
:00000001FF
